:10000000A7C20000DEC20000DCC20000DAC20000AD
:10001000D8C20000D6C20000D4C20000D2C2000084
:10002000D0C20000CEC200000C94D9250C94A526A5
:100030000C944221C6C20000C4C20000C2C200002B
:10004000C0C200000C945819BCC20000BAC2000023
:100050000C947B190C94B921B4C20000B2C2000008
:10006000B0C20000AEC20000ACC20000AAC20000D4
:10007000A8C20000A6C20000A4C20000A2C20000E4
:10008000A0C200009EC200009CC200009AC20000F4
:1000900098C2000096C2000094C2000092C2000004
:1000A00090C200008EC200008CC2000029001E0019
:1000B0001F0020002100220023002400250026002C
:1000C00027002D002E002A002B0014001A00080023
:1000D000150017001C0018000C00120013002F0060
:1000E00030002800390004001600070009000A004B
:1000F0000B000D000E000F0033003400320028000A
:10010000E10031001D001B00060019000500110070
:100110001000360037003800E500E500E000E3009D
:10012000E200000000002C000000520051002A00F4
:10013000E60050004F00205235003A003B003C00E2
:100140003D003E003F0040004100420043004400AB
:10015000450000000000000000000000000000005A
:10016000000000000000000000000000000000008F
:10017000000000000000000000000000000000007F
:10018000000000000000000000000000000000006F
:10019000000000000000000000000000000000005F
:1001A000000000000000000000000000000000004F
:1001B00000000278000000000000000000000000C5
:1001C000000020521E0F0500047F3F1F643214649C
:1001D0003214783C1E1E140A052223252628292ABB
:1001E0002C2D2F3032333536383A3B3D3E4042439A
:1001F0004547494A4C4E5051535557595A5C5E60D9
:1002000062646668696B6D6F71737577797B7D7FEA
:1002100081838587898A8C8E90929496989A9C9EE9
:100220009FA1A3A5A7A8AAACAEAFB1B3B4B6B8B905
:10023000BBBCBEBFC1C2C3C5C6C7C9CACBCCCDCE6D
:10024000D0D1D2D2D3D4D5D6D7D7D8D9D9DADADB50
:10025000DBDBDCDCDCDCDCDDDDDDDDDCDCDCDCDCDC
:10026000DBDBDBDADAD9D9D8D7D7D6D5D4D3D2D21B
:10027000D1D0CECDCCCBCAC9C7C6C5C3C2C1BFBE03
:10028000BCBBB9B8B6B4B3B1AFAEACAAA8A7A5A36E
:10029000A19F9E9C9A98969492908E8C8A8987852D
:1002A00083817F7D7B79777573716F6D6B6968660C
:1002B0006462605E5C5A5957555351504E4C4A49DE
:1002C00047454342403E3D3B3A3836353332302F86
:1002D0002D2C2A292826252322FFAA7F55400001FC
:1002E00001010101010101010202020202020202F6
:1002F00002030303030303030304040404040404C8
:10030000050505050506060606060707070707088B
:10031000080808090909090A0A0A0B0B0B0C0C0C3E
:100320000D0D0D0E0E0E0F0F0F10101111111212D8
:1003300013131414151516161717181819191A1A55
:100340001B1B1C1D1D1E1E1F2020212222232424B6
:10035000252626272829292A2B2C2D2D2E2F3031F2
:100360003232333435363738393A3B3C3D3E3F4004
:100370004142434445464748494A4C4D4E4F5051EF
:100380005354555658595A5B5D5E5F6162646566A9
:1003900068696B6C6D6F7072737577787A7B7D7E30
:1003A0008082838587888A8C8E8F91939596989A80
:1003B0009C9EA0A2A3A5A7A9ABADAFB1B3B5B7BA98
:1003C000BCBEC0C2C4C6C9CBCDCFD1D4D6D8DBDD6C
:1003D000DFE2E4E7E9EBEEF0F3F5F8FAFDFF1603F0
:1003E00058004400360030002000520065007600BE
:1003F0002000330000000C03580049005500440061
:10040000490000000403090409023B00020100A0A6
:10041000FA09040000010301010009211101000192
:1004200022440007058103080001090401000103BB
:1004300000000009211101000122B6000705820316
:1004400020000112010002000000084478636301EB
:10045000000102000105010902A10185020901A1B3
:100460000005091901290815002501950875018164
:10047000020501093009311581257F950275088132
:100480000609381581257F950175088106050C0A36
:1004900038021581257F950175088106C0C00501C8
:1004A0000980A101850319012AB700150126B700AB
:1004B000950175108100C0050C0901A10185041981
:1004C000012AA002150126A002950175108100C025
:1004D00005010906A1018506050719E029E71500B0
:1004E00025019508750181020507190029EF1500FE
:1004F000250195F075018102050819012905950569
:1005000075019102950175039101C005010906A1CC
:1005100001050719E029E7150025019508750181F6
:10052000029501750881010507190029FF150026AC
:10053000FF009506750881000508190129051500B9
:100540002501950575019102950175039101C00082
:1005500011241FBECFEFDAE0DEBFCDBF04B603FE2D
:1005600019C08091870390918803A0918903B0916D
:100570008A038730904BA740B04B61F410928703F9
:10058000109288031092890310928A03E0E0F8E346
:10059000099500C011E0A0E0B1E0E4E7F4E502C095
:1005A00005900D92A43EB107D9F723E0A4EEB1E087
:1005B00001C01D92A738B207E1F70E9406120C9401
:1005C000DB291ECD229A2A98089522982A98089508
:1005D000CF93DF93D82F28D1C82F811519F0D1FFE1
:1005E00005C0F0DF8C2FDF91CF910895EEDFFACFB9
:1005F0008230E0F46530D0F44E30C0F450E09EE03C
:10060000699F400D511D112490E0919581959109AC
:10061000867490E0FC01E40FF51FEE0FFF1FE45518
:10062000FF4F85919591282F822F089521E090E02A
:10063000FBCFDECF089581E0089581E00895FBCFE0
:10064000089581E0089581E00895FDCF089508950B
:100650000895FDCF089508950895A6E0B0E0E3E37E
:10066000F3E00C94E42849835A839E833091EB0194
:1006700089819A81311117C03E81311589F0211588
:1006800079F06FD5182F682F89819A8149D56981B2
:100690007A81812F0E94CD0E2696E3E00C940029EA
:1006A00050D5182FF4CF5DD569817A81F3CFFC0145
:1006B000262F408151816281738184819581CDCFC4
:1006C000CF93DF93EC0161E0F2DFBE01B6DF81156D
:1006D00029F061E0CE01EBDFBE01B1DFDF91CF9108
:1006E00008950F931F93CF93DF93EC0160E0DFDF5A
:1006F0008C01BE01ADDFBE01C801ABDFDF91CF9140
:100700001F910F9108950F931F93CF93DF93EC01E7
:1007100061E0CDDF8C018D8181110E945618BE01F0
:10072000C8018FDF811106C080E0DF91CF911F915A
:100730000F910895BE01C80188DF8115A9F3BE019C
:10074000C8010E942419811579F3BE01C8010E94D5
:10075000831E811549F3BE01C8010E94FA1A811552
:1007600019F3BE01C8010E94D11A8115E9F2BE0138
:10077000C8010E941C128115B9F2BE01C8010E9475
:10078000D00F811589F2BE01C8010E94E20F8115C8
:1007900059F2BE01C8010E94FC0FC7CF21E030E032
:1007A00002C0220F331F8A95E2F7C901F4C3CF9329
:1007B000C82F81E090E00C2E02C0880F991F0A9488
:1007C000E2F70E94D50C8C2FE9DFCF91089581E0EC
:1007D000089581E00895FBCF0895CF93C82F8AD361
:1007E0008C2FF7DF8C2FF7DF8FEF94E32CE0815015
:1007F00090402040E1F700C00000CF91089581E0D3
:10080000ECDF0C94DD2180E0E8DF0C94012223DF93
:100810000E94DB2080E00E9407190BC00E94601834
:100820000AD01ADF0C94DF2081E008950895D0CE1D
:10083000089580E0FCCF0E94D11EF9CFCF930E9493
:10084000D11EC82F8091E6018C1771F0C093E6018C
:100850000E94AD216093E7017093E8018093E90164
:100860009093EA018C2FE3DFCF910895ADE0B0E0E3
:10087000ECE3F4E00C94E528488759876A877B8786
:100880008C879D8791117BD71F8286E0FE01389669
:100890009E012F5F3F4FD90101900D928A95E1F79C
:1008A0008D8181110CC029813A814B815C816D81E0
:1008B0007E818F81AFD62D96E2E00C940129CE0186
:1008C0000196FEDE8111EFCFF6CFFC0124812130AD
:1008D00019F48081918178C40895611521F00E94F6
:1008E000561C0C940B1D0E94961CFBCFCF93C82F57
:1008F0008115B9F08238B9F40E94E01E81FD11C063
:1009000089E30E940D20C6D78FEF97EE23E0815038
:1009100090402040E1F700C0000089E30E942420BD
:10092000B9D7CF910895833899F40E94E01E80FDD5
:10093000F8CF83E50E940D20ADD78FEF91EE24E034
:10094000815090402040E1F700C0000083E5E6CFF1
:10095000843899F40E94E01E82FDE3CF87E40E9470
:100960000D2098D78FEF91EE24E0815090402040E9
:10097000E1F700C0000087E4D1CF8450813A68F4E9
:100980008C2F0E94871F811521F08C2F0E9424201C
:1009900081D78C2F0E940D20C3CF8C2F805E883092
:1009A00048F481E0C1FD84E0C0FD880FC2FD82955E
:1009B000C7D6B6CF8C2F855A833030F48C2F845213
:1009C000990B0E94131FADCFEC2FE85AEB3150F476
:1009D000F0E0EE0FFF1FEF5CFE4F808191810E94DF
:1009E0003A1F9FCF8C2F8D5C833108F09ACF61E046
:1009F0008C2F73DF96CF811509F44EC0823861F4D5
:100A00000E94E01E81FF48C089E30E940D2042D76A
:100A100089E30E9424203EC7833851F40E94E01EDF
:100A200080FF3AC083E50E940D2034D783E5F1CFE3
:100A3000843851F40E94E01E82FF2EC087E40E9499
:100A40000D2028D787E4E5CF982F9450913A08F3EA
:100A5000982F905E983050F4982F81E091FD84E0BB
:100A600090FD880F92FD829571D6D5CF982F955A1B
:100A7000933020F480E090E00C94131F982F985A44
:100A80009B3120F480E090E00C943A1F982F9D5CFD
:100A9000933110F460E021CF08951F93CF93DF933B
:100AA000182FEB0123DF209731F4812FA4DFDF9192
:100AB000CF911F9108958FE99FE00197F1F700C052
:100AC00000002197F0CF60E570E0893311F060E01D
:100AD00070E0E3CF811511F033D6DCC6089581159F
:100AE00011F034D6D7C60895A0E0B0E0EAE7F5E00B
:100AF0000C94DF286C01D62FC72FFC0115810681CD
:100B000002950F7012D6E82E8115E9F0E12E11152D
:100B1000D1F08C2F807F803461F08D2F805E883003
:100B2000E0F08C2F807E803221F4D230B0F00115BD
:100B3000A1F08091340382FF10C082E0CFD6F5D5BA
:100B400091E08927E82EEC2FE295EF70C03C78F514
:100B5000F0E0E352F64D0C94BF28E12CF4CF0C2FBB
:100B60000F70C03110F00295007F111581F0011552
:100B700049F08D2F805E883010F0D11105C0802F94
:100B8000DFD588D68D2F40C0802FEBD5FACF8D2FA3
:100B900032DF011561F08D2F805E883010F0D111A9
:100BA00003C0802FD3D502C0802FE1D573D6E114C6
:100BB00009F4B3C0B6D580FDB0C0F6011582ABD53F
:100BC0001AD2C60168D1A7D524D2A7C08C2F8F70A6
:100BD000F82EC07FC03219F0F29480EFF822D130A5
:100BE00038F079F1111509F438C00115C9F0CACFF0
:100BF0008091340382FD10C0111541F0F11419F0F9
:100C00008F2D9ED547D680E071DED1CF80E0F3DE18
:100C1000F11469F28F2DC6CF111551F0013018F47F
:100C20008F2D58DFC4CF09F0C2CF8F2DBCD5BFCFD9
:100C30000111BDCF8F2D53DF8F2DC0D58F2DA5D5A1
:100C4000B6CF111521F0063008F0B1CFE9CF05304D
:100C500008F0ADCF8F2D43DFAACF0115D9F3D933DB
:100C600049F48FEF97EE23E0815090402040E1F768
:100C700000C000008D2FBFDE9ACF8C2F8695869501
:100C80008370813060F009F092CF8D2F9C2F93708C
:100C9000111102C080E090E00E943A1F88CF8D2F92
:100CA0009C2F9370111102C080E090E00E94131FEE
:100CB0007ECF612F8D2F11DE7ACF8C2F8370C1F5FF
:100CC000111128C04D2F429546954770440F440F8F
:100CD0002D2F2F7030E0042E02C0220F331F0A94F4
:100CE000E2F780E090E0D4FF09C08FE090E002C01E
:100CF000880F991F4A95E2F780959095C695C695FD
:100D0000C370822B932BC23079F0C33079F0C1309D
:100D100049F04AD10E94D11E8ADDCDB7DEB7E8E0A6
:100D20000C94FB283AD1F6CF46D1F4CF34D1F2CF90
:100D3000111559F1C0FFEECF4D2F429546954770E2
:100D4000440F440F2D2F2F7030E0042E02C0220FCD
:100D5000331F0A94E2F780E090E0D4FF09C08FE0EF
:100D600090E002C0880F991F4A95E2F78095909510
:100D7000C695C695C370822B932BC23061F0C330E9
:100D800061F0C13031F06AD1C5CF823008F4C2CFF2
:100D9000D3CF5DD1BFCF69D1BDCF1AD1BBCFCF707B
:100DA000111529F08C2F27D18D2F94DEB3CF8D2FE5
:100DB00096DE8C2F2ED1AECFD23F31F168F4D03FEA
:100DC000C1F0D13F89F0111509F43EC0011509F4B5
:100DD00038C08D2F8BDD9ECFD33FE1F0D43F99F704
:100DE0008091340382FD1EC08C2F8F71111511F379
:100DF0000FC0111539F0053008F08CCF8C2F8F7192
:100E000018D188CF0630F8CF8C2F8F711111D2CF27
:100E1000F2D080CF111521F08C2F8F71E3D07ACFD3
:100E2000DED078CF111529F063E08C2F8F713FD57C
:100E300071CF81E053D5023008F46CCF82E04ED5FB
:100E400069CF8C2F8F71E4CF011571F0D93349F43C
:100E50008FEF97EE23E0815090402040E1F700C0F3
:100E600000008D2FC8DD56CF8C2F8F71A3CF0F932D
:100E70001F93CF93DF93EC01688179818D81ADD190
:100E80008C01FAD087D0B801CE012EDEDF91CF9150
:100E90001F910F910895CF93DF93EC018C81811501
:100EA00081F0CE0130DC81110FC03FD4811549F0B3
:100EB0008D81811531F08091340382FF02C082E080
:100EC0000DD5DF91CF910895CE01D1DFCE0109DCA0
:100ED000F8CF80E090E00E94131F80E090E00E9435
:100EE0003A1F4DD4D7D40E94241D0C940B1D0E9490
:100EF0003B20EFCF33D4FBCF282F92959F709630B5
:100F000099F060F4925F9F70923030F4203FB1F01E
:100F100038F481E0283E38F080E008959A5FF3CFFE
:100F200081E0243FC9F7089591E0813F09F090E006
:100F300081E0283E08F080E0892B089581E0089543
:100F4000FC012481211521F0808191813DD1D4CFF4
:100F500080E00895A6E0B0E0E0EBF7E00C94E5282F
:100F60002696E2E00C940129A7E0B0E0EAEBF7E076
:100F70000C94E5282796E2E00C9401290895FECF11
:100F80000895FDCF0895FADFFCDF8093120290935D
:100F9000130208950895F7CF089520911202309119
:100FA0001302822B932BEFCF209112023091130268
:100FB00082239323E8CF20911202309113028227DB
:100FC0009327E1CFDBCF0895FDCF0895D7CF0895C4
:100FD000FDDFFADF8093100290931102089580E004
:100FE00090E0F6CF21E030E002C0220F331F8A9557
:100FF000E2F7C901EDCF21E030E002C0220F331F3C
:101000008A95E2F78091100290911102822B932B26
:10101000DFCF21E030E002C0220F331F8A95E2F7D4
:101020002095309580911002909111028223932394
:10103000CFCF21E030E002C0220F331F8A95E2F7C4
:10104000809110029091110282279327C1CF2091A5
:10105000100230911102822B932BBACF20911002F3
:101060003091110282239323B3CF2091100230914B
:10107000110282279327ACCF0895CF93C1E061FD81
:10108000C4E060FDCC0F62FDC29593E07695679554
:101090009A95E1F7660F771F660F771F460F571F68
:1010A000FA0140E050E090E06191DF019C01042EE4
:1010B00002C0369527950A94E2F72695220B26273B
:1010C0002C2326272E934F5F5F4F4430510561F745
:1010D000CF910895A82FA77023E0969587952A951C
:1010E000E1F7880F991F880F991F680F791FFB017F
:1010F00040E050E080E0219130E00A2E02C03695B9
:1011000027950A94E2F72170042E01C0220F0A9459
:10111000EAF7822B4F5F5F4F4430510561F7089526
:10112000262F953068F48E3058F4682F70E08EE0EA
:10113000989F600D711D11244CEE51E0822F9DCFC0
:101140000895292F953058F48E3048F490E06CEED5
:1011500071E03EE0239F800D911D1124BBCF80E004
:101160000895CF92DF92FF920F931F93CF93DF9357
:101170006C01009110021091110280911202909165
:101180001302082B192BCFE0D0E081E090E00C2E69
:1011900002C0880F991F0A94E2F780239123892BBC
:1011A00061F4219790F7F12C8F2DDF91CF911F9152
:1011B0000F91FF90DF90CF900895FC2EB6018C2FF9
:1011C000F7D5019771F3F0CFCF93DF93EC01C9DF2F
:1011D000BE01EED5DF91CF9108951F93CF93DF939A
:1011E000EB019091EB01911531F0CB01EDDFDF9137
:1011F000CF911F910895811551F0CB01B2DF182FC7
:10120000682FCE018DDFBE01812FD2D5F0CFCB016B
:1012100098DF182FF8CF0F931F930091140280913D
:101220001502801303C01F910F91089587E0089F56
:10123000F0011124EA5EFD4F20813181428153810A
:1012400064817581868190DE0F5F1F4F0770E7CF45
:1012500020914E0230914F02409150025091510224
:101260006091520270915302809154027DCE809120
:101270005402803170F480915302811551F0E09155
:1012800014022091150230914F0240914E022E130C
:1012900001C00895BF0187E0E89FF0011124DF013C
:1012A000AA5EBD4F14968C911497811549F1119641
:1012B0008C911197831324C08C91841321C01596AF
:1012C0008C91159781111CC012968D919D91A091C2
:1012D0005002B09151028A1B9B0B883C910580F40F
:1012E000809154028F70806180935402E45EFD4FC0
:1012F00080818F70806180838EE492E0CCDD8BCF23
:101300006F5F7F4FFB01E770C2CFE09114029091B5
:101310001502E91302C080E008959F0157E0E59FA0
:10132000F0011124EA5EFD4F5181561306C0508131
:10133000581303C05581541305C02F5F3F4FF90167
:10134000E770E7CF81E008958F929F92AF92BF92AE
:10135000DF92EF92FF920F931F93CF93DF93CDB75E
:10136000DEB72D970FB6F894DEBF0FBECDBF8C0150
:1013700086E0F801DE01189601900D928A95E1F75A
:10138000F801F58084819EE4892E92E0992E909157
:101390005202911117C0811509F4EFC0F11409F43C
:1013A0002EC1C801CDDD811509F429C187E0F801FE
:1013B000D40101900D928A95E1F7C40186DA57DFD6
:1013C00047DFDBC0E080A280B380D0905302209141
:1013D000500230915102A501421B530BD11409F464
:1013E000CFC0483C510508F09EC0811509F4C5C026
:1013F00090914F02918080915402803108F065C035
:10140000991226C090914E029E1122C0F11057C031
:101410008F708061809354021BDF8EE492E03BDD8D
:1014200080915402F8018683F12C8F2D2D960FB6F2
:10143000F894DEBF0FBECDBFDF91CF911F910F910A
:10144000FF90EF90DF90BF90AF909F908F900895A6
:10145000F11035C040E0692D8E2D57DF40E0692D39
:101460008E2D53DFF82E8111DFCF88859985ACDE74
:10147000292F22952F70903450F49F70223078F0ED
:10148000911591F0F8019681903170F4CECF2A5FDA
:101490002F70223070F0C801FEDCFD2CC6CF9115F4
:1014A00019F0811509F4C1CF805E883008F4BDCFF2
:1014B000F2CF803F08F4B9CF815F8330F7CF8091BE
:1014C0005402816080935402AFCF991207C090916B
:1014D0004E029E1103C0F11409F473C0C80130DD3F
:1014E000811509F48CC0F11409F489C0809154026B
:1014F000803280F020914E0230914F0229833A834E
:10150000AB82BC82909152029D831E828F83CE015A
:101510000196C1DC87E0F801AEE4B2E001900D92E3
:101520008A95E1F74CCF90915402903188F4488528
:1015300059856A857B858C859D850CDD8EE492E0DE
:10154000AADCF40187E011928A95E9F781DE6CCF7D
:10155000811599F020914F0281812813BFCF80918E
:101560004E028E11BBCFF110B9CF9683C80193DC28
:10157000F40187E011928A95E9F7FF24F39455CF9F
:10158000483C510508F03EC08115B9F3F114B9F19A
:1015900090914F028181981329C080914E028E1143
:1015A00025C08091540280FD18C08031B0F0868340
:1015B000807F803F39F08681982F907F905F8F7079
:1015C000892B8683C80167DC87E0F801AEE4B2E0CE
:1015D00001900D928A95E1F7F3CE87E0F801AEE431
:1015E000B2E001900D928A95E1F7C7CFC801A8DC5F
:1015F000811190CF80915402816080935402C80180
:101600004ADCBBCF488559856A857B858C859D855D
:10161000A1DC97CFAEE0B0E0E0E1FBE00C94E42881
:10162000288739874A875B876C877D878E87CE01BD
:1016300008968ADE6C85811599F0611539F0288548
:1016400039854A855B857D858E858EDC8091140287
:101650009091150289133DC02E96E3E00C94002969
:1016600087E09E01285F3F4FF90127503109D901DA
:1016700001900D928A95E1F7611541F3A091150251
:101680008A2F90E08395877090E0AC01209114023E
:101690002417150691F097E09A9FD0011124AA5EB5
:1016A000BD4F9E012F5F3F4FF90101900D929A951A
:1016B000E1F740931502AFDDC9CF1CDC1092150293
:1016C00010921402EEE4F2E087E011928A95E9F7B5
:1016D000BDCF17E0189FC00111248A5E9D4F34DEF4
:1016E000811509F4B9CFE09114021E9FF001112475
:1016F000EA5EFD4F20813181428153816481758191
:10170000868132DC809114029091150201968770D7
:10171000809314029BCF80917D0286958695869555
:10172000089580917D028770089590917D02977051
:1017300081E0911101C080E008958091A90208958F
:101740009091A902982B9093A90208958095982FC3
:101750008091A90289238093A90208951092A90279
:1017600008959091A802982B9093A80208958095CF
:10177000982F8091A80289238093A802089510923F
:10178000A80208950895FECF089590917E02292F12
:10179000282329F08095892380937E02F4CF089531
:1017A0000895FECF089590917F02292F28232817AE
:1017B00021F0982B90937F02F4CF089590917F02AF
:1017C000292F282329F08095892380937F02E9CF50
:1017D000089580917F02811521F010927F0280E0B0
:1017E000E0CF0895CF93C091A9028091A802C82BA1
:1017F00080917F02811529F0C82B0E94611F811101
:10180000E8DF8C2FCF910895CF93DF93C09106012D
:10181000D0910701E7DF8883C0910601D0910701CD
:1018200048E050E065E772E0CE010E946C29892B08
:1018300059F088E0FE01A5E7B2E001900D928A958B
:10184000E1F7CE010E94E21EDF91CF910895CF9380
:10185000DF93C0910401D0910501C4DF8983C09159
:101860000401D091050140E250E065E572E0CE014F
:101870000E946C29892B59F080E2FE01A5E5B2E0B7
:1018800001900D928A95E1F7CE010E94EF1EDF9143
:10189000CF9108950E94CA1E811529F080913303CB
:1018A00087FF01C0D4CFB0CF0895FECF08959091A7
:1018B000340392FF0EC0982F990F990F990F962B12
:1018C00090937D0298DB80917D0286958695869522
:1018D000ECCF91CB10927D0280E0E7CF90917D021A
:1018E0008095892380937D02282F277059F48917CA
:1018F00049F09091340392FF05C0869586958695B0
:1019000088DBE8CF08959091340392FB222720F9D9
:10191000281749F080FB92F99093340383E393E016
:1019200048D082E0DBCF089580913403002482FF09
:101930000394802DE8CF81E0E6CF80E0E4CF80E023
:1019400090E0BC011EC480E090E0BC0114D4F7CF4D
:10195000A4E0B0E0EEEAFCE00C94E52867D372D393
:101960001C82CE01049685D381E090E08093120220
:10197000109213028AD3198284E18A83CE010196E0
:1019800095D31B82CE010396A3D350D6DCDF2496D9
:10199000E2E00C940129DCCF08955AC3089547C3AF
:1019A00008955CC308956BC308956FC3089572C30F
:1019B00008957CC3089581C308958AC308958EC392
:1019C0000895C0C30895E3C30895A6E0B0E0EBEE28
:1019D000FCE00C94E3280E94A1218C018091AA02D2
:1019E0009091AB028017910779F019821A820E94B8
:1019F000A121BC0149815A8180E090E00E94360417
:101A00000093AA021093AB022696E4E00C94FF2800
:101A10000E94AD216093B0027093B1028093B20234
:101A20009093B3026093AC027093AD028093AE02C8
:101A30009093AF02089508950895FDCF08950895F5
:101A4000FEDFFBCF0895FECF08950895FEDFFBCFA4
:101A50008EEC9FE0ECD4F0DFF3CF81E0089581E0DD
:101A60000895FBCF0895089508950895FCDFFCDFE5
:101A7000FCCF95DF811101C08EDF84EB92E091DF16
:101A800083E393E094DF0E94CF1A8DDF84DA8091A4
:101A900010029091110298CA0E94982130D4E9DF77
:101AA0000E94C81E0E9416040E945B1A0E946018C1
:101AB0000E948917CBCFA6E0B0E0E1E6FDE00C94F0
:101AC000D928CDDF81110FC080DF0E94C91E0E947E
:101AD00057180E945A1A0E94451D0E941E042696FD
:101AE000EEE00C94F5281AD429E2822E23E0922EFF
:101AF000740110E0F701C080D180812F53D31F5FA4
:101B0000153009F450C022E0E20EF11CC816D906C7
:101B100089F38091B40281FD4ED3A3DF682E10E0DB
:101B2000812F40D37C01F401A190B1904F018A151F
:101B30009B0599F1A826BF2400E091E0C92ED12C85
:101B4000C5018C219D21892B01F177247394C70154
:101B50008C219D21892B09F4712C611489F0602F4F
:101B6000812F0E94032181110BC009831A830E94D7
:101B7000A121BC0149815A8181E0972D0E94360440
:101B8000472D602F812F0E941A210F5FCC0CDD1C86
:101B90000E30B1F6F401F292E2921F5F153009F0B7
:101BA000BFCF36DF92CFC816D90609F0B2CF8CCF9F
:101BB0000F931F93CF93DF93FDD0EC01D23508F044
:101BC00050C0D03508F0C8C0C03ED10530F5CD3C7E
:101BD000D10508F09DC0C83AD10578F4C53AD105C1
:101BE00008F093C0C130D105B1F1CE010497813A1C
:101BF000910588F1C0E0D0E02EC0CE01885A91094D
:101C00004B97C0F7C85AD0E0CC0FDD1FC959DE4F43
:101C10000990D881C02DD4641EC0D034A8F4D0322D
:101C200008F0ADC0C83ED105B0F0CE0191509F3153
:101C300008F78D2F62D1082F8C2F90E0BBD0D02FCA
:101C4000DF71C82FD92B07C08C2F90E0B3D0DF7085
:101C5000C82FD92BD06ACE01DF91CF911F910F9160
:101C60000895C03882E5D807B8F5C03682E5D807B0
:101C700008F056C0C03482E5D807C8F4C03282E507
:101C8000D80708F047C08C2F8695869520E2829F62
:101C9000C0011124C37021E030E002C0220F331FC5
:101CA000CA95E2F7E901C82BD92BDD68D4CF8C2F78
:101CB00086958695877020E2829FC0011124C370AB
:101CC00021E030E002C0220F331FCA95E2F7E9019C
:101CD000C82BD92BDC68BFCFC03C82E5D80750F4B5
:101CE0008C2F8F71C03AD24580F5982F84EF906A7F
:101CF000EC01B1CFCE01805C9245809708F07ACF9D
:101D0000DC2FDF71C0EFD06AA6CFA497D064A3CF39
:101D1000D065A1CF8C2F8F71D82FC1EFD06A9BCF08
:101D20008C2F86958695877020E2829FC0011124B2
:101D3000C37021E030E002C0220F331FCA95E2F7E2
:101D4000E901C82BD92BDA6886CFD7D0982F80E04D
:101D50009F71EC01D0627FCF8C2F8F71CED053E07A
:101D6000CC0FDD1F5A95E1F7DF70282F84FF04C0E8
:101D700090E1899F90011124C22FD0696CCF8D2FE3
:101D80008F71BBD0082F8C2F90E014D0302F3F7173
:101D9000282F392B3062E9015ECF462F753028F4A9
:101DA0006E3018F4672F0C94190380E090E00895CA
:101DB000F4DFFECE803E9105D1F1C8F48133910568
:101DC00009F481C048F48932910509F471C08A325E
:101DD000910509F47FC0089589339105E1F08238B7
:101DE0009105C9F08533910509F45DC00895843EDD
:101DF0009105D1F148F4823E910531F1833E910580
:101E000041F181EE90E00895863E9105C1F1873E53
:101E10009105F1F1089520913303237009F064C016
:101E20002091340323FF14C089E290E008952091AB
:101E3000330320FD45C03091340330FF09C024FD39
:101E400024C083EE90E008952091330322FDF7CF64
:101E500008952091330322FD44C03091340330FDB6
:101E600043C024FFF5CF11C02091340321FFF0CFF0
:101E70008091330384FD09C087EE90E0089520919E
:101E8000330323FFE5CF24FFF7CF80E090E00895F0
:101E90002091330323FD2BC03091340331FFE1CF78
:101EA00084EE90E008952091330325FFD1CFBCCF7D
:101EB0002091330325FD1EC02091340323FFC8CF9A
:101EC00089E390E008952091330326FFC1CF8AE291
:101ED00090E008952091330326FFBACF81E390E08C
:101EE000089582EE90E0089580EE90E0089586EEE9
:101EF00090E0089585E390E008959091330392FF78
:101F000010C041E0282F2471243009F040E031E076
:101F1000282F2871283009F030E0431711F02CE009
:101F2000822793FF10C041E0282F2471243109F04B
:101F300040E031E0282F2871283109F030E04317C4
:101F400011F02CE082273091340330FF10C051E0B3
:101F5000282F2171213009F050E041E0282F28710D
:101F6000283009F040E0541711F029E0822731FFB2
:101F700010C041E0282F2171213109F040E031E00B
:101F8000282F2871283109F030E0431711F029E09B
:101F9000822794FF02C083FD877E089580E0089524
:101FA000CF939C01205E3245C1E02032310538F4E8
:101FB000FB01C581C11103C08F710E94D7038C2F13
:101FC000CF9108959C01FB018581811599F02B35F6
:101FD0009CE7390769F02C359CE7390721F02A3551
:101FE0003C4721F00895A0DC80E00895A4DCFCCFFC
:101FF000A4DCFACF81E008959C01FB018581811565
:1020000099F021309CE7390761F023309CE73907CC
:1020100039F021153C4749F40E94FF0380E0089500
:10202000BCDC0E940304FACF81E00895089580E0AB
:1020300090E00E9486299C0181E0233E3E4F09F0FA
:1020400080E0089563EE7EEF80E090E00C94A52997
:102050006FEF7FEF80E090E00C94A529CF93DF93A2
:10206000EC0182E090E00E9479298883DF91CF9192
:102070000895FC01608182E090E00C948B2983E05C
:1020800090E00E94792990E00895682F83E090E025
:102090000C948B29CF93DF93EC0184E090E00E94B5
:1020A000862988839983DF91CF910895FC0160810F
:1020B000718184E090E00C94A529CF93DF93EC012B
:1020C00086E090E00E9479298883DF91CF9108957E
:1020D000FC01608186E090E00C948B298F929F92A6
:1020E000AF92BF92CF92DF92EF92FF920F93CF9376
:1020F000DF93EC0188E090E00E9481294B015C01B4
:10210000688399828A83BB821C821D821E821F8201
:1021100083E290E00E9479299401A50188823983A5
:10212000AA825B838C831D821E821F82DF91CF91E6
:102130000F91FF90EF90DF90CF90BF90AF909F9066
:102140008F9008950F93CF93DF93EC0148815981CD
:102150006A817B8188E090E00E949D296C81262F16
:1021600060E070E0CB01622F83E20E948B29DF9157
:10217000CF910F910895AB01BC018FE090E00C94DA
:102180009D29AB01BC0183E190E00C949D29682F4F
:102190008EE090E00C948B290895FECF0895089569
:1021A000FECF0895E82FF0E0EE0FFF1FE15CFC4F3B
:1021B000808191810895089580EA8A95F1F70895C4
:1021C00000C00895F9CF0895F894E82FE295EF70D4
:1021D000F0E041A18F7021E001C0220F8A95EAF75B
:1021E000922F9095942391A392A1822F892B82A361
:1021F00078940895CF93DF93CBEAD1E089918F3F14
:1022000009F0E2DF81E0C03BD807C1F7CDE9D1E0BA
:1022100089918F3F09F0D8DF81E0CB3AD807C1F729
:10222000DF91CF910895AF92BF92DF92EF92FF922C
:102230000F931F93CF93DF935C01D62EC62FD0E070
:102240008E0105551E4FF80180818F3F09F44BC068
:10225000F894E82FE295EF70F0E091A18F7021E003
:1022600001C0220F8A95EAF7892F822B81A382A1D0
:102270002095282322A37894A3DFEDE9F1E021E063
:1022800030E0E12CF12C41914F3F79F0A42FA29541
:10229000AF70A05EB0E08C9190E04F7002C0959559
:1022A00087954A95E2F780FF28C080E090E0E82A11
:1022B000F92A220F331F81E0EB3AF80721F7F801E2
:1022C00080818F3F09F080DF61E0E114F10409F4BF
:1022D00060E08D2D77DFCC0FDD1FC5018C0F9D1FBA
:1022E000EC01E882F982DF91CF911F910F91FF906D
:1022F000EF90DF90BF90AF900895C901D8CF7ADFFB
:10230000EFE3F3E08AE011928A95E9F7E5E3F3E081
:102310008AE011928A95E9F73CD03FCFAAE0B0E07D
:10232000E4E9F1E10C94E228FE013196DF018AE054
:102330001D928A95E9F710E00E2FFF2E612F802F56
:102340009F2D71DF812F8F5F182F8530B9F74AE0FD
:1023500050E0602F7F2D85E393E00E946C2941E0DF
:10236000892B69F440E06FE373E085E393E012D0DA
:10237000182F16DF812F2A96E5E00C94FE288AE0BC
:10238000E02FFF2DA5E3B3E001900D928A95E1F7D0
:10239000EACF0895EF92FF920F931F93CF93DF93AD
:1023A0008C017B01C42F411579F081E08093B70245
:1023B0000E94A1218093B5029093B60280E0CDB730
:1023C000DEB7E6E00C94FD28D091B702D115B1F349
:1023D0008091B5029091B6020E943221059770F368
:1023E0004AE050E0B801C7010E946C29892B41F0F6
:1023F0008AE0F801D70101900D928A95E1F7CD2F7F
:102400001092B7028C2FDBCF56CB08950E943B2150
:102410000E9432231DDB0E944A233EDB0E9453238D
:102420000E945623F1DF0E946C2320DBF9CF8093BA
:10243000E4019093E5010895CF93DF93EC01FB0154
:102440008581811104C081E0DF91CF91089575D914
:102450008272FE01E052F847EB30F105A0F7E75138
:10246000F64D0C94BF284DD580E0EECF811521F0BC
:102470003CD5FACF8115E1F32CD5F6CF811521F0AB
:1024800017D2F2CF8115E1F309D2EECF811521F0F9
:1024900029D2EACF8115E1F318D2E6CF811521F0D8
:1024A0003BD2E2CF8115E1F32AD2DECF811521F0B4
:1024B000E8D0DACF8115E1F3D5D0D6CFA0E0B0E0F7
:1024C000E4E6F2E10C94DE28062FB72EE82F711116
:1024D0000EC0411521F0F0E0E252FD4FE4916E2F65
:1024E0007E2F8E2FCDB7DEB7E9E00C94FA28411588
:1024F00021F0F0E0E252FD4FE49186E0089FE00118
:1025000011242FEF30E0CE01B9010E947628AB01F3
:10251000C801880F991FF5E5F49FB001F59F700D74
:102520001124861B682F660F680FC9018B1991094A
:10253000E89FD001E99FB00D11248B2FB69E60015A
:102540001124CD2CD12C89010C191D096801E09FA3
:102550007001E19FF00C11244330510551F18901C4
:10256000061B1109B09E6001B19ED00C1124CD2C28
:10257000D12C2C193D09E29F8001E39F100D1124FD
:10258000712FCC3FD34050F441305105B1F042306F
:10259000510561F47E2FEB2F812F08C04430510587
:1025A00079F04630510511F07B2F8F2D6E2FE82FDB
:1025B00098CF7F2D8E2FEB2FF9CF7E2FEF2DF6CFDB
:1025C0008E2FE12F7B2FF2CF41E078CF0895FCCF03
:1025D000089590910B01291B922FE091DD01F0915C
:1025E000DE01242F462F682F892F90E0099508954A
:1025F000CF93DF93762FE901682F842FE8DF962FA2
:10260000672F9E01482F892FE4DFDF91CF91089536
:1026100080914903843028F4837084608093490357
:1026200008958C3AE8F38370886AF8CF85E0809348
:10263000490310924A038FEF80934B0380934C031E
:1026400010924D0389E493E0BCC990914D039330FF
:1026500018F49F5F90934D03811519F089E493E07E
:10266000B0C9089581E0F1CF90914D03911519F013
:10267000915090934D03811519F089E493E0A1C91D
:10268000089581E0F1CF0F931F93CF938091490379
:1026900080FF09C0E091E101F091E2010995CF913D
:1026A0001F910F910895C0910D018091DD019091CE
:1026B000DE018C0180910E01C81760F780910B013B
:1026C0009C2F981B20E040E060E0892F90E0F8010B
:1026D0000995CF5FEFCFEF92FF920F931F93CF93A8
:1026E000DF93D82F162F042F8091490380FF0CC051
:1026F000C0910D018091DD019091DE017C018091FE
:102700000E01C81730F0BFDFCDB7DEB7E6E00C949E
:10271000FD2880910B019C2F981B202F412F6D2F9E
:10272000892F90E0F7010995CF5FE9CF762F90913F
:10273000490390FF08C0682F842F49DF962F672F29
:10274000482F892FC8CF0895CF93DF93EC01EC81F8
:10275000F0E0E752FE4F4491E9E4F3E062818181C9
:10276000E5DF8C818F5F8C83DF91CF910895CF93CC
:10277000DF93EC01E9E4F3E0438162818C81D6DFF1
:102780008C818F5F8C83DF91CF910895CF93DF93FE
:10279000EC0120914C039C81892F817090FD822F48
:1027A000692F627091FD622F492F447092FD422F74
:1027B00092DF8C81019687708C83DF91CF91089591
:1027C000A0E0B0E0E6EEF3E10C94E028D82FE62E8E
:1027D000F42ED22E9091490390FF21C0092F069527
:1027E0000695E02FF0E0E055FE4F80818093FD02DA
:1027F0009C7F9430C9F46D2F7E2D842FE8DE962FB8
:10280000672F482F892F67DFD0934A03E0924B034D
:10281000F0924C03D11419F089E493E0D2D8CDB7EB
:10282000DEB7E7E00C94FC28823019F4F0904C03FA
:10283000EBCF863019F4D0914A03E6CF8930D9F333
:10284000893111F70951E02FE695F0E0E752FD4F8D
:10285000C49110E060910F01161710F014DFD4CF6F
:102860001C9FC001112470E00E947628862F8D0FD6
:1028700000FF02C08D2F861B20910D01210F3327F1
:10288000331F4F2D6E2DB4DE1F5FE4CFE9E4F3E07C
:10289000282F438162818181865F92CF81E0F6CFCC
:1028A000E9E4F3E0282F4381628181818A5088CF57
:1028B00081E0F6CFE9E4F3E0628121E1620F08F400
:1028C0006FEF282F438181817BCF81E0F3CFE9E453
:1028D000F3E0628121E1621B08F460E0282F43816C
:1028E00081816ECF81E0F3CFE9E4F3E0438121E120
:1028F000420F08F44FEF282F6281818161CF81E080
:10290000F3CFE9E4F3E0438121E1421B08F440E026
:10291000282F6281818154CF81E0F3CF20E050CF16
:102920000F931F93CF938C01C0E060910F01C617E6
:1029300068F0A9DEF8018481928190FF1DC08F5F4D
:10294000F8018483CF911F910F91089520910D017B
:102950002C0F3327331F70E08FEF90E00E948A28FE
:10296000F801848140914C03C69F800D1124609131
:102970004B033EDECF5FD9CF8150E2CFAF92BF9203
:10298000DF92EF92FF920F931F93CF93DF93FC019F
:102990008281D1E080FDDFEFC0E08091DD01909188
:1029A000DE015C0180910F01C817B8F06CDE8091E8
:1029B000B902D13009F050C0811102C080910F01DD
:1029C00081508093B902DF91CF911F910F91FF90B9
:1029D000EF90DF90BF90AF90089580910D0190919E
:1029E0000B01891B8C0F20E040E060E090E0F501D6
:1029F000099504E010E0D12CEC2EF12C8091B90265
:102A00008D0D8D301CF16CE00E946928892F082EF5
:102A1000001C00088E150F0499F480910D01970198
:102A2000280F311D40914C030403A001112455953A
:102A300047955595479560914B0380914A03D8DDA2
:102A4000DD0E01501040D1F6CF5FACCF87FFDFCF56
:102A500090910F01890FDBCF90E0019660910F01FB
:102A600070E00E948A28ADCF0F931F93CF93C0913F
:102A70000D018091DD019091DE018C0180910E01AC
:102A8000C81750F1C0E08091DD019091DE018C010A
:102A900060910F01C61768F1F6DD809109019091F0
:102AA000B802980F9093B80220910A01280F209342
:102AB0000A01121654F420910F012150330B092EF4
:102AC000001C0008921703061CF0819580930901F1
:102AD000CF911F910F91089580910B019C2F981B0E
:102AE00020E040E060E0892F90E0F8010995CF5F99
:102AF000C5CFEC2FF0E070E0CF010E948A28209132
:102B00000D01820F9091B802092E001C0008E917F0
:102B1000F0059CF090910A01092E001C00089E17F8
:102B20000F065CF0282F30E040914C0360914B037E
:102B300080914A035DDDCF5FABCF90910B01891B84
:102B400020E040E060E090E0F8010995F4CFA0E0DB
:102B5000B0E0EDEAF5E10C94DD28EC01FC812F2FCB
:102B600030E0D9010E943F289B01AC010E94CB2894
:102B70007B018C0180E290E08F1B9109FC01A5E5AF
:102B80009701A8010E94CB285B016C019F01DF0126
:102B90000E9439289B010E94C5289B01AC012E0D83
:102BA0003F1D401F511FB501C6010E949D28022FE5
:102BB00030E00A3220F5A901440F551F420F531F80
:102BC00055954795142F1095F12C85E5801BE82E1F
:102BD00080910F01F81600F156DD9C8181E091157E
:102BE00019F0903219F48FEF809308018091080159
:102BF000890F8C83CDB7DEB7EAE00C94F92885E520
:102C000090E0821B930BAC01440F551F480F591FD6
:102C1000BAF64F5F5F4FD4CF8E2DF1FC802F2091FD
:102C20000D012F0D3327331F412F60914B03E0DC43
:102C3000F394CECF0F931F93CF93DF938C01C0E01B
:102C4000D0E090910F01C917D1055CF01CDDF801AF
:102C50008481019681708483DF91CF911F910F91C0
:102C60000895F801448180910D019E01280F311DC6
:102C700060914B0380914A039695C917D1053CF4A6
:102C8000411539F040914C03B3DC2196DACF411560
:102C9000C9F340E0F9CFA0E0B0E0E1E5F6E10C9443
:102CA000D928FC018281882E948081E08483E9ED1B
:102CB000F1E0A490E8E5F2E0E491C0914C03C69500
:102CC000C158D0E0CC0FDD1FED2EF12CB12C05E06A
:102CD0001FEFEA198E2F90E03C0180910F01B8168A
:102CE00030F0D1DCCDB7DEB7EEE00C94F528CB2C7C
:102CF000D12C882D833058F40B9DF0011124E6541B
:102D0000FD4F80914A03808380914B038183911012
:102D10001BC00C9DF0010D9DF00D1124E654FD4FDC
:102D20001382128280910D019601280F311D0C9D96
:102D3000F0010D9DF00D1124E654FD4F428161819B
:102D4000808156DCB394C9CF0C9DE0010D9DD00D60
:102D50001124C654DD4F8B818115E1F081508B83A6
:102D6000189FC00111246C8170E00E94762870E0E9
:102D7000FB01E752FE4F84918A19189FC00111246C
:102D8000B3010E94762880914C03689FB001112402
:102D90007A83C8CF0E9453296FEF70E00E948A287F
:102DA0008E159F050CF0BECF882D833090F00E94C9
:102DB00053296FEF70E00E948A2888830E9453296C
:102DC00020914B032695622F70E00E948A28280FDD
:102DD00029830C9DF0010D9DF00D1124E654FD4F4B
:102DE000128280914C03893C58F088EC0C9DF001D4
:102DF0000D9DF00D1124E654FD4F8483838392CF03
:102E00008431A0F784E1F2CF809149038E7F8093D3
:102E1000490389E493E00E94E10C1092FE0233CC56
:102E2000609149036695669570E04BE050E080E163
:102E300091E00E945F29892B19F481E08093FE02C2
:102E40000E94A1218093F6029093F7020895909139
:102E5000490390FF2CC0811559F18B3258F58F73BF
:102E6000880F880F909149039370892B80934903B1
:102E7000611521F089E493E00E94E10C609149031F
:102E80006695669570E04BE050E080E191E00E942D
:102E90005F29892B89F01092FE0281E08093F9026C
:102EA00040914C0360914B0380914A0337CD0895C4
:102EB00081E0D6CF8AE2D4CFB3DFEFCF682F9091F5
:102EC000490396959695892F8F5F8B3208F081E0A4
:102ED000BECF81E0F3CF682F9091490396959695E8
:102EE000892F815009F48AE2B2CF81E0F4CF61E00A
:102EF000AECF809149038160809349038695869582
:102F0000F6CF8091490380FF01C07ECFF2CF60E011
:102F10009ECF8091FC0281111FC089E493E00E9442
:102F2000DF0C80914903843028F480DB89E493E04E
:102F30000E94DF0C6DDB1092FE02E091DB01F0914C
:102F4000DC0109958091490380FF03C08695869531
:102F5000DEDF81E08093FC0208950F931F93CF93EF
:102F6000DF938091FE02811509F441C08091FD023A
:102F7000E0914903E695E695E81BE093F802853178
:102F800009F48BC008F044C0893009F47CC0A0F576
:102F9000823009F466C0863009F46CC0C0EDD7E019
:102FA00006EE12E18091F902811561F01092F902AA
:102FB0000E94A1218093F6029093F7021092FA02E8
:102FC0001092FB020E94A1212091F6023091F7029B
:102FD000821B930B8F3F9F4750F42C0F3D1F209374
:102FE000F6023093F70286EF92E0F8010995DF913F
:102FF000CF911F910F9108958F3081F6E695F0E003
:10300000E453FE4FE491CE2FD0E00EEB14E1CACF93
:10301000C4EFD1E00AE116E1843221F288F4C8E27B
:10302000D0E007EA15E1883109F4BCCF833209F01A
:10303000B5CFE7ECF1E0C591D59106EC13E1B2CF45
:10304000853209F0ABCF8E2F63E00E945D28E92F17
:10305000F0E0EC53FE4FE491CE2FD0E00BE416E10C
:10306000A1CFF0E0EB52FE4FE491CE2FD0E004EA86
:1030700013E198CFF0E0EE52FE4FE491CE2FD0E076
:1030800007EB13E18FCFE695F0E0E153FE4FE491BB
:10309000CE2FD0E000E914E185CFF0E0E753FE4FFA
:1030A000E491CE2FD0E004E315E17CCF089555CF15
:1030B000089585E38093510381E593E00C94DD0C42
:1030C00081E593E00E94DB0C8091510382FFF1DFE8
:1030D00080915103883320F087708063809351037F
:1030E00090915103892F817090FF04C0892F86959C
:1030F0008695869534C190915103892F8695869542
:103100008695903340F48F5F880F880F880F9770F3
:10311000892B8093510380915103816080935103E7
:1031200081E593E00E94DD0C8091510386958695A0
:10313000869515C180915103883088F0885080931E
:10314000510391E0883008F490E08091510390FBA6
:1031500080F98093510381E593E00E94DD0C80911A
:103160005103869586958695FAC08091510380FD1E
:1031700012C0816080935103813019F489E08093FB
:10318000510381E593E00E94DD0C80915103869507
:1031900086958695E4C008958091510380FF09C00B
:1031A0008E7F8093510381E593E00E94DD0C80E0E7
:1031B000D6C008958091510380FF01C0EDCFD5CFD7
:1031C000809151038695869586958F5F8F718730A4
:1031D00008F080E0880F880F880F90915103977056
:1031E000892B8093510391E0883008F490E080911E
:1031F000510390FB80F98093510381E593E00E9495
:10320000DD0C80915103869586958695A8C0873000
:1032100008F086E0209151032770982F990F990F9D
:10322000990F922B9093510321E0983008F420E0FD
:103230009091510320FB90F99093510390C0E7DFE8
:1032400081E593E00C94DD0CFB012581211539F11A
:10325000833038E79307E9F068F4813038E7930763
:10326000B1F0823038E79307C1F08115984759F0E3
:10327000822F0895843038E7930769F085309847A6
:10328000B9F79EDF02C086E0DADF20E0F1CF80E010
:10329000FBCF50DFFACF2FDFF8CF8CDFF6CF21E066
:1032A000E7CF859A8D9A08958D9808958D9A0895FF
:1032B0001F920F920FB60F9211242F933F934F93AB
:1032C0005F936F937F938F939F93AF93BF93EF938E
:1032D000FF93ECDFFF91EF91BF91AF919F918F91A1
:1032E0007F916F915F914F913F912F910F900FBE02
:1032F0000F901F9018951F920F920FB60F921124E6
:103300002F933F934F935F936F937F938F939F93ED
:10331000AF93BF93EF93FF93209188003091890082
:1033200080918600909187006AEF70E00E94762875
:103330006B5F7F4F6217730708F4B6DFFF91EF9161
:10334000BF91AF919F918F917F916F915F914F91BD
:103350003F912F910F900FBE0F901F9018950F93D4
:103360001F93CF93DF93C82F8730E0F581113BC0C7
:103370008091880090918900892B51F080916F0095
:103380008D7F80936F0080916F008E7F80936F00A0
:103390008DDF2091860030918700AC2FB0E00E9435
:1033A0003F2826E030E040E050E00E949D28E901FF
:1033B000FA0180918600909187006CE070E00E9495
:1033C00076286217730700F1C90169E070E00E9476
:1033D00076287093890060938800DF91CF911F91C8
:1033E0000F910895C6E08091880090918900892B03
:1033F00081F680916F00826080936F0080916F00F2
:10340000816080936F00C5CF809186009091870086
:1034100020918600309187008901209186003091AB
:10342000870066E070E00E947628C60FD71FE11D76
:10343000F11D85E0CC0FDD1FEE1FFF1F8A95D1F730
:10344000C80166E070E00E94762840E050E0260F58
:10345000371F411D511DBE01CF010E949D28E9016A
:10346000FA0180918600909187008C01B901CA0110
:103470000E944E289B01AC01D8010E94CB289B01E1
:10348000AC01BE01CF010E944E28770FBB27AA27AF
:10349000881F991FAA1F2091860030918700281746
:1034A00039071A061B0620F4809186009091870048
:1034B000BC018FCF0895F5DE82E08093800089E122
:1034C000809381008FEF9FEF909387008093860019
:1034D000F7CD869A0895FC01EE0FFF1FE80FF91F44
:1034E000EE5AFC4F6183408322830895FF920F932D
:1034F0001F93CF93DF93182F062FF42EC0E0D0E058
:103500002F2D402F612FCE01E6DF2196CC30D10543
:10351000B9F7CDB7DEB7E5E00C94FE2831B33F7BB9
:1035200021B320644FB7F89482E593E0FC01019643
:10353000508168E021BB000000C057FF31BB550F30
:10354000000000C000C000C031BB00C06A9591F708
:1035500053E08637950751F74FBF8FE594E0019709
:10356000F1F700C0000008950C94CD0C089580E0A0
:103570000E94D210817008950E948E118FEF96E7FD
:1035800021E0815090402040E1F700C000000E94FF
:103590008E11EDDF811511F0E7DF0FC70895ECCF35
:1035A0000895CF93DF93EB0186319C4709F50E9484
:1035B0009D0B9D81911599F08A7A91E0811101C04E
:1035C00090E09093FF02811541F085E326D50E949B
:1035D0004A0C80E0DF91CF91089589E2F7CF809186
:1035E000FF02811519F085E32FD5F1CF89E2FCCFD9
:1035F00081E0F0CFCF93DF93EC01FB018581811552
:1036000009F4CBC09E0130572332310508F0ABC01E
:1036100083E393E00E94D70CFE01E150F047E232D1
:10362000F10520F4EC50F64D0C94BF288091330343
:1036300081608093330390C08091340388608093CD
:1036400034038AC0809133038260F3CF80913303C7
:103650008460EFCF809133038860EBCF8091340397
:103660008160EDCF809134038260E9CF8091330394
:103670008061DFCF809133038062DBCF80913303A1
:103680008064D7CF0E947A07809133038068D1CFBE
:10369000809133038C60CDCF809134038360CFCF92
:1036A000809133038E7FC5CF80913403877FC7CF4E
:1036B000809133038D7FBDCF809133038B7FB9CF52
:1036C00080913303877FB5CF809134038E7FB7CF4E
:1036D000809134038D7FB3CF809133038F7EA9CF48
:1036E000809133038F7DA5CF809133038F7BA1CF52
:1036F0000E947A07809133038F779BCF80913303A9
:10370000837F97CF809134038C7F99CF909133033F
:10371000892F8B7F92FF8460877F92FF886089CF9B
:1037200080913403982F909590FB80F990FB81F95C
:1037300086CF90913303892F8F7B96FF806479CF5A
:103740000E947A0790913303892F97FB87F980585D
:1037500070CF81E00E94E30C83E393E00E94D90CD8
:103760000E947A0780E0DF91CF91089580E0F2CF48
:1037700090913303892F8F7E94FF80615ACF90916F
:103780003303892F8E7F90FF816053CF9091340354
:10379000892F877F93FF886052CF81E0E4CF382F55
:1037A00025EB3203C001112497FF04C08058910912
:1037B000892F089580589F4FFBCF8091060380FF8B
:1037C0000DC06091200170E0660F771F60387105B1
:1037D00088F56115710581F1862F089581FF07C075
:1037E0006091200184E0689FB0011124EFCF82FF37
:1037F00004C06091200188E0F6CF909105039115F7
:10380000B9F060911F0180912001961728F098E08F
:10381000899FB0011124DACF899FC001112423E0D0
:10382000880F991F2A95E1F770E00E948A28CECF71
:1038300068E0D2CF8FE7089581E008958091060374
:1038400080FF0CC060911C0170E0759567957595BF
:1038500067956115710541F1862F089581FF06C0B6
:1038600060911C0170E075956795F3CF60911C0124
:1038700082FD0BC0909104039115A1F060911B0192
:1038800080911C01961738F0682F70E06038710540
:1038900000F38FE70895899FC001112470E00E9412
:1038A0008A28F4CF61E0D8CF81E00895E82FED5C5D
:1038B000E33198F5F0E0EA5EF54D0C94BF287DDF2A
:1038C000819580930A03089578DFFBCF76DF819599
:1038D00080930903089571DFFBCFB0DF80930B0362
:1038E0000895ACDF8195FACFA9DF819580930C0311
:1038F0000895A4DFFBCF815D990B21E001C0220F69
:103900008A95EAF780910803822B80930803089533
:1039100080910603816080930603089580910603D9
:103920008260F9CF809106038460F5CF409109034E
:103930008D3C59F480910A0387FF0DC010920A0351
:10394000411559F41092050308C08E3C81F4809112
:103950000A0318169CF3411581F080910B03909196
:103960000C03892B09F056C01092040308958F3C74
:1039700041F447FFF0CF1092090380910A038115AB
:10398000E0CF803D19F41416B4F3E5CF90910B030A
:10399000893D29F41916FCF610920B03DCCF8A3D01
:1039A00019F497FFD8CFF8CF90910C038B3D29F4F1
:1039B00097FFD1CF10920C03CECF8C3D19F419167E
:1039C000CCF3C9CF982F915D983078F4815D990B35
:1039D00021E001C0220F8A95EAF7822F809590910D
:1039E0000803892380930803B6CF8D3D31F480917D
:1039F00006038E7F80930603AECF8E3D21F4809127
:103A000006038D7FF7CF8F3D09F0A5CF8091060388
:103A10008B7FF0CF089595D49C01909109038091FC
:103A20000A03982B21F02093020330930303909113
:103A30000B0380910C03982B21F02093000330930B
:103A4000010387E093E0DDC1E7E0F3E086E0119257
:103A50008A95E9F710920503109204031092060369
:103A60000895FC01828181110EC0838181110BC0F8
:103A70008481811108C091E08581811101C090E0AD
:103A8000892F8170089581E0FCCFA6E0B0E0EBE4DF
:103A9000FDE10C94E22886E0E7E0F3E09E012F5F71
:103AA0003F4FD90101900D928A95E1F710920903D9
:103AB00010920A0310920B0310920C038B819C81CD
:103AC000892B022FF32E811581F0809102039091B2
:103AD0000303C8D3AC01909105039115A1F1809126
:103AE00021018417150608F43BC08D819E81892B26
:103AF00089F08091000390910103B4D3AC019091BF
:103B00000403911509F45AC080911D01841715060C
:103B100008F462C0602F7F2D87E093E0C4D281114A
:103B200004C087E093E09DDF811175DF86E0E02F20
:103B3000FF2DA7E0B3E001900D928A95E1F726965C
:103B4000E5E00C94FE28209122018AE0289F900154
:103B500011242417350748F69F5F9093050302C090
:103B60009F3FD1F71B81111551F027DE91E011160F
:103B70000CF09FEF899F802D1124809309031C81F5
:103B8000111551F01ADE91E011160CF09FEF899F8C
:103B9000802D112480930A0380910903811509F473
:103BA000A4CF10910A03111509F49FCFF8DD80937B
:103BB0000903812FF4DD80930A0397CF20911E0122
:103BC0008AE0289F900111242417350708F0A2CF1E
:103BD0009F5F9093040302C09F3FD1F71D81111591
:103BE00051F02CDE91E011160CF09FEF899F802D93
:103BF000112480930B038E81182F811551F01EDE46
:103C000091E011160CF09FEF899F802D1124809375
:103C10000C0380910B03811509F47CCF90910C0368
:103C2000192F911509F476CFBADD80930B03812FFC
:103C3000B6DD80930C036ECF0F931F93CF93DF936A
:103C4000C42FD22FFC0185818115C9F040930F0349
:103C500078D380930D0390930E038C2F805E883071
:103C600048F481E0C1FD84E0C0FD880FC2FD82956B
:103C70000E946A05DF91CF911F910F9108951091D5
:103C80000F03141333C080910D0390910E03EAD2F9
:103C9000883C910558F5CD2FC05E1D17C1F0812FCE
:103CA000805E883048F481E011FD84E010FD880FCB
:103CB00012FD82950E946F05C83048F481E0D1FD65
:103CC00084E0D0FD880FD2FD82950E946A05802F86
:103CD0000E94630581E0D1FD84E0D0FD880FD2FD14
:103CE0008295C83038F60E946F05C4CF8C2F805E55
:103CF000883008F0BFCF81E0C1FD84E0C0FD880FAF
:103D0000C2FD8295F0CF0F93FC01CB01E851FC4737
:103D1000E730F10588F5E75DF54D0C94BF2806E224
:103D200021EE41EE6AE17CE787DF80E00F910895A4
:103D300007E225EE45EE6BE17CE7F6CF06E221EEE9
:103D400040EE68E17CE7F0CF07E225EE44EE69E162
:103D50007CE7EACF06E221EE42EE6CE17CE7E4CFBD
:103D600007E225EE46EE6DE17CE7DECF08E221E0DA
:103D700045EE6EE17CE7D8CFFB0185818111109281
:103D80000F0381E0D3CF809314039093150308951C
:103D900008950895EFD1982F81E0913009F080E0E7
:103DA0000895E0911403F0911503309739F00190D4
:103DB000F081E02D309711F00995089580E0089585
:103DC000F0CF0895E0911403F0911503309731F08E
:103DD0000280F381E02D309709F009950895E09174
:103DE0001403F0911503309759F024813581232B6A
:103DF00039F026E0DC012C930480F581E02D099553
:103E00000895E0911403F0911503309759F026813D
:103E10003781232B39F022E0DC012C930680F781D7
:103E2000E02D09950895A3E0B0E0E9E1FFE10C94ED
:103E3000E528209112033091130328173907B1F0B8
:103E40008093120390931303E0911403F0911503F0
:103E5000309761F00084F185E02D309739F023E050
:103E600029838A839B83CE01019609952396E2E0FC
:103E70000C940129A3E0B0E0E0E4FFE10C94E52814
:103E8000209110033091110328173907B1F0809366
:103E9000100390931103E0911403F09115033097F0
:103EA00061F00084F185E02D309739F024E029831A
:103EB0008A839B83CE01019609952396E2E00C94B8
:103EC0000129CF93DF93C0910601D091070162DFF2
:103ED000811521F08091330387FD11C09E012E5F73
:103EE0003F4F96E080E09150F90140812F5F3F4FB6
:103EF00041118F5F9111F7CFDF91CF9108952091FC
:103F00000401309105012E5F3F4F9EE1EBCFCF932F
:103F1000C82F811102C080E02EC03CDF811521F046
:103F20008091330387FD0FC08091060190910701B6
:103F3000FC013296089620812C17F9F03196E8178B
:103F4000F907C9F7E8CF8C2F869586958695C03FEF
:103F500010F7E0910401F0910501E80FF11D2281B5
:103F600030E0C77081E001C0880FCA95EAF72823C6
:103F700081E0232B81F2CF91089581E0FCCF9C0159
:103F8000FC01329680E09FEF4081461759F0319650
:103F90009F3F19F4411101C0982F8F5F8630A1F720
:103FA0009F3F09F40895290F311D97FD3A95F901B6
:103FB00062830895FC01329608962191261302C06F
:103FC000DF011E92E817F907C1F70895262F2695FD
:103FD00026952695603F60F4820F911DFC01677065
:103FE00021E001C0220F6A95EAF78281822B828349
:103FF0000895262F269526952695603F68F4820F12
:10400000911DFC019DEF61FD97EF60FF959562FDAD
:1040100092958281892382830895CF93C82FBADE37
:104020006C2F811559F08091330387FF07C0809171
:10403000040190910501CADFCF9108958091060196
:10404000909107019CDFF8CFCF93C82FA3DE6C2F90
:10405000811559F08091330387FF07C080910401D7
:1040600090910501C6DFCF9108958091060190914E
:104070000701A0DFF8CF8EDE811571F08091330348
:1040800087FF0AC0E0910401F091050132968EE1AC
:1040900011928A95E9F70895E0910601F0910701E0
:1040A000329686E0F5CFDC01FB0111969C911197C9
:1040B0008181981322C012968C911297811519F064
:1040C000928189131AC013968C911397811519F058
:1040D0009381891312C015968C911597811519F04B
:1040E000958189130AC014969C91911521F081E065
:1040F0002481291303C080E001C081E0817008950C
:104100000895FECF08958F5F80932601609123016B
:10411000709124018091250190912601F2CF83E0D6
:1041200080932601609123017091240180912501E3
:1041300090912601E6CFE7CF089581E08093260194
:1041400060912301709124018091250190912601B5
:10415000D8CFF3CF089591E0811101C090E0909302
:104160002501609123017091240180912501909196
:104170002601C7CF80912501089580932401609185
:104180002301709124018091250190912601B9CFDE
:1041900080912401089580932301609123017091FF
:1041A00024018091250190912601ABCF80912301BC
:1041B000089508950895FECF089508950895F9CFBC
:1041C00008950F931F93CF93DF93F7DF0E948E1113
:1041D000F5DF06E113E0C0E0D0E08C2F0E94D210A2
:1041E0009C01F801819331938F0191E0232B09F415
:1041F00090E0D92BCF5FC53081F78D2FDF91CF9124
:104200001F910F910895E82FF0E0EE0FFF1FEA5E77
:10421000FC4F81E090E002C0880F991F6A95E2F799
:10422000BC01808191816823792381E0672B09F4A7
:1042300080E00895411115C0E82FF0E0EE0FFF1F58
:10424000EA5EFC4F81E090E002C0880F991F6A95FA
:10425000E2F780959095208131818223932380839A
:1042600091830895CF93DF93EC016BD08C1B9D0B52
:10427000DF91CF91089585B7806885BF85B7806845
:1042800085BF08951F921FB61F9211248F939F938D
:10429000AF93BF9380912003811113C08091760367
:1042A00090917703A0917803B09179034196A11D75
:1042B000B11D8093760390937703A0937803B09316
:1042C0007903BF91AF919F918F911F901FBE1F9057
:1042D000189580917E03843031F10E94070410927A
:1042E000200388E190E020E40FB6F894A89580932D
:1042F00060000FBE2093600083B7817F846083BF1E
:1043000083B7816083BF7894889583B78E7F83BF9E
:104310000FB6F894A8958091600088618093600042
:10432000109260000FBE08950E947A070C940E044C
:1043300082E084BD93E095BD9AEF97BD80936E00B7
:1043400008952FB7F8948091760390917703A09108
:104350007803B09179032FBF08952FB7F894609137
:1043600076037091770380917803909179032FBF42
:10437000089578941F921FB61F9211248F939F93D4
:10438000AF93BF938091760390917703A0917803C8
:10439000B09179030196A11DB11D8093760390938E
:1043A0007703A0937803B0937903BF91AF919F9166
:1043B0008F911F901FBE1F90189581E08093E000A1
:1043C00080E28093D8001092C9008FE19EE40197AB
:1043D000F1F700C00000A7E0B0EBCD0180938703A8
:1043E00090938803A0938903B0938A0388E19CE0AB
:1043F0000FB6F894A895809360000FBE909360006C
:10440000FFCF88E19CE00FB6F894A89580936000F8
:104410000FBE90936000FFCF9B01BA0190917E0385
:104420009430D9F48F708093E9009FEF8091E80079
:1044300085FD06C085ED8A95F1F700009150B1F732
:104440008091E80085FF09C040E050E0C901B6D185
:104450008091E8008E778093E800089543E050E073
:10446000BC0182E0D9CF46E050E0BC0182E0D4CF6D
:1044700040E250E0BC0182E0CFCFCF93DF93EC016C
:1044800079DE48E050E0BE0181E0C6DF88E0FE0151
:10449000A1E2B3E001900D928A95E1F7DF91CF910F
:1044A000089580917D03811107C016D366D3809152
:1044B000E20084608093E200089510927D030895E5
:1044C0003CDE81E048CE60917A0381E0611101C059
:1044D00080E025CE90917E0381E0943009F080E069
:1044E00060917A0328CE42E061EC81E071D242E231
:1044F00061EC82E06DD290917E0381E0943009F00E
:1045000080E060917A03FFCD80918003893081F152
:1045100048F4823009F496C0833009F457C08130E2
:1045200041F008958A3009F480C08B3009F468C0E6
:10453000089580917F03813A09F047C08091E80097
:10454000877F8093E8008091830390918403892B77
:1045500059F060E080E090E070E07DD18091E8006B
:104560008B778093E800089568E081E293E0F4CFD0
:1045700080917F03813249F5809183039091840378
:10458000029718F58091E800877F8093E80080917A
:10459000E80082FF16C02091F3008091F200922F74
:1045A000029731F48091F100813011F0863019F4D6
:1045B0008091F100E2DD8091E8008B778093E80044
:1045C0003BC280917E038111E2CF089580917F03E9
:1045D000813AD9F78091830390918403892BA9F7BD
:1045E0008091E800877F8093E8008091E80080FF59
:1045F000FCCFC0DD8093F1008091E8008E77DECFA4
:1046000080917F03813209F7809183039091840325
:10461000892BD9F68091E800877F8093E8000CD23F
:104620008091810398DD0C947A0780917F03813219
:1046300061F68091E800877F8093E800FDD180914A
:104640008203A9CD80917F03813A09F0BECF80918A
:10465000E800877F8093E8008091E80080FFFCCF2E
:10466000A5DDC8CF84B7877F84BF0FB6F894A8951F
:1046700080916000886180936000109260000FBE9E
:1046800080E890E00FB6F894809361009093610009
:104690000FBE5FCD21D271D2E2EEF0E08081846066
:1046A00080837894CDC487E291E06DCB80917E03C6
:1046B000853029F480917E03853011F035CE089540
:1046C00008DE7FDD8115B1F380917C03811591F3C4
:1046D0005FD00E947A07EECF08959A01409185033A
:1046E0005091860300C0492F50E043305105C9F076
:1046F00070F441305105E9F14230510571F48BE31A
:1047000090E048E054E0F90140835183089541323C
:104710005105E9F04232510519F180E090E040E0A6
:10472000F2CF482F50E0813061F04230510561F006
:10473000E4E0F4E04115510581F7849190E0AF0188
:10474000E2CFE6EFF3E0F9CFEEEDF3E0F6CF613044
:104750007105A0F011F789E090E043E354E0D3CF76
:104760006130710580F0C9F686EB90E045E554E0D4
:10477000CACF82E190E043E454E0C5CF89E090E005
:104780004AE154E0C0CF84E490E04BE055E0BBCF79
:1047900080E189BD82E189BD09B400FEFDCF809131
:1047A000D8008F7D8093D8008091E0008260809354
:1047B000E0008091E00081FDFCCF0895AF92BF92B0
:1047C000CF92DF92FF920F931F93CF93DF936C01F1
:1047D000EB018A0150D1F82E811123C0011511057A
:1047E00039F0F80180819181C81BD90BC80ED91E00
:1047F000A12CB12C2097A9F08091E80085FD21C063
:104800008091E8008E778093E80001151105A1F0F2
:10481000F801808191818A0D9B1D8083918385E0C1
:10482000F82E8F2DDF91CF911F910F91FF90DF9088
:10483000CF90BF90AF9008951ED18115E9F2F82E68
:10484000F0CFF60181916F018093F10021978FEFF6
:10485000A81AB80ACFCFFC012091850330918603B6
:104860002617370720F06115710569F09B0190E06C
:104870002115310571F491110CC08091E80082FF7F
:1048800038C080E008959091E8009E779093E8000A
:10489000EDCF80917E038115C1F18530C1F180910A
:1048A000E80083FD30C08091E80082FDE6CF809172
:1048B000E80080FFDDCF8091F3004091F200582F97
:1048C0002115310519F04830510558F091E0483074
:1048D000510509F090E04091E8004E774093E800E0
:1048E000C7CF81918093F100215031094F5F5F4F15
:1048F000E7CF80917E03811541F0853041F08091B2
:10490000E80083FFBACF81E0089582E0089583E054
:104910000895FC01209185033091860326173707FF
:1049200020F06115710569F09B0190E021153105BA
:1049300071F491110CC08091E80082FF39C080E0D1
:1049400008958091E8008E778093E800EDCF809104
:104950007E038115C9F18530C9F18091E80083FD9E
:1049600031C08091E80082FDE6CF8091E80080FFB1
:10497000DDCF8091F3004091F200582F21153105D1
:1049800019F04830510558F091E04830510509F0D0
:1049900090E08091E8008E778093E800C7CF849103
:1049A0008093F1003196215031094F5F5F4FE6CF80
:1049B00080917E03811541F0853041F08091E800BF
:1049C00083FFB9CF81E0089582E0089583E00895E0
:1049D000982F973028F08F708093E90081E0089538
:1049E0009093E900242F762F50E0981731F07091C2
:1049F000EC002091ED005091F00021FD02C09F5F7E
:104A0000E8CF3091EB003E7F3093EB003091ED002A
:104A10003D7F3093ED003091EB0031603093EB003F
:104A20007093EC002093ED005093F0002091EE0085
:104A300027FDE5CF80E0089580917F0387FF13C0B5
:104A40008091E80082FF06C08091E8008B77809318
:104A5000E800089580917E038111F2CF089580913E
:104A60007E038115D9F38091E80080FFF8CF809113
:104A7000E8008E77ECCF2091E4003091E50095E6D8
:104A8000A9012091EC00822F817020FF06C0809147
:104A9000E80080FF06C080E008952091E80022FD34
:104AA0001AC080917E03811589F0853089F080914C
:104AB000EB0085FD0FC02091E4003091E500421726
:104AC0005307F9F29150E1F684E0089582E00895E9
:104AD00083E0089581E008955FD066D0E0EEF0E0D5
:104AE000808181608083E8ED80818F77808319BC2D
:104AF000A7EDB0E08C918E7F8C9380818F7E808338
:104B000010927D030895CF93DF9346D04DD0C8ED2A
:104B1000D0E088818F7788838881806888838881C6
:104B20008F7D888319BC10927E0310927A031092B5
:104B30007C0310927B03E0EEF0E080818B7F80832A
:104B400088818160888342E060E080E041DFE1EEBF
:104B5000F0E080818E7F8083E2EE808181608083BF
:104B6000808188608083E0EE80818E7F8083888171
:104B700080618883DF91CF910895E8EDF0E0808136
:104B80008F7E8083E7ED80818160808384E082BFB7
:104B900081E080937D03B7CFE8EDF0E080818E7FE8
:104BA00080831092E20008951092DA001092E100E2
:104BB00008951F920F920FB60F9211242F933F93D7
:104BC0004F935F936F937F938F939F93AF93BF9315
:104BD000EF93FF938091E10082FF0AC08091E20091
:104BE00082FF06C08091E1008B7F8093E10027D295
:104BF0008091DA0080FF18C08091D80080FF14C037
:104C00008091DA008E7F8093DA008091D90080FF56
:104C10008FC080E189BD82E189BD09B400FEFDCF6E
:104C200081E080937E033DDC8091E10080FF18C02D
:104C30008091E20080FF14C08091E2008E7F80931B
:104C4000E2008091E20080618093E2008091D800D0
:104C500080628093D80019BC85E080937E0333DCAA
:104C60008091E10084FF28C08091E20084FF24C08D
:104C700080E189BD82E189BD09B400FEFDCF80914C
:104C8000D8008F7D8093D8008091E1008F7E809343
:104C9000E1008091E2008F7E8093E2008091E2004B
:104CA00081608093E20080917A03811509F445C008
:104CB00084E080937E030EDC8091E10083FF27C0B7
:104CC0008091E20083FF23C08091E100877F809381
:104CD000E10082E080937E0310927A038091E100EC
:104CE0008E7F8093E1008091E2008E7F8093E200CE
:104CF0008091E20080618093E20042E060E080E029
:104D000067DE8091F00088608093F000D9DBFF912E
:104D1000EF91BF91AF919F918F917F916F915F9133
:104D20004F913F912F910F900FBE0F901F901895AC
:104D300019BC10927E03C1DB77CF8091E30087FF1F
:104D400002C083E0B6CF81E0B4CF1F920F920FB6BE
:104D50000F9211241F932F933F934F935F936F9361
:104D60007F938F939F93AF93BF93CF93DF93EF93F3
:104D7000FF93E9EEF0E080811091EC008F7010FB62
:104D8000112717F9182B1082C0EFD0E08881877F98
:104D9000888378941CD0E9EEF0E0108288818860E6
:104DA00088831F701083FF91EF91DF91CF91BF91A6
:104DB000AF919F918F917F916F915F914F913F91B3
:104DC0002F911F910F900FBE0F901F901895AAE280
:104DD000B0E0ECEEF6E2F8C18FE793E0FC0101965B
:104DE0002091F100208323E087389207B9F78CDB0C
:104DF0008091E80083FF37C080917F03909180030A
:104E00009A3088F5E92FF0E0E05DF54DB8C18038C3
:104E100089F0823841F5809183038F70873018F5CF
:104E20008093E9008091EB0085FB882780F9109240
:104E3000E90006C080917C03880F90917B03892B49
:104E40009091E800977F9093E8008093F100109292
:104E5000F1008091E8008E7722C0811115C0809109
:104E60008103813001F18091E80083FF0AC08091C5
:104E7000E800877F8093E8008091EB008062809358
:104E8000EB00AA96E3E0BCC1823069F78091810310
:104E9000811579F01092E9008091E800877F809376
:104EA000E800CADDE0CF933009F080E080937C0316
:104EB000F1CF809183038F70282F2150263098F6F0
:104EC0008093E9002091EB0020FFE4CF933031F490
:104ED0008091EB0080628093EB00DCCF9091EB003F
:104EE00090619093EB0021E001C0220F8A95EAF7D0
:104EF0002093EA001092EA008091EB008860EBCFEB
:104F00008111B1CF809181038F77182F8091E300B9
:104F10008078812B8093E3008091E800877F8093E5
:104F2000E8008ADD8091E80080FFFCCF8091E300FB
:104F300080688093E30083E0111101C082E08093D8
:104F40007E0391CF8058823008F08DCF809181030D
:104F5000909182038C3D23E0920789F583E08A8358
:104F60008AE289834FB7F894DE01139620E03EE091
:104F700051E2E32FF0E050935700849120FF03C0EB
:104F800082958F703F5F8F708A30B8F0895C8D9307
:104F90001D922F5F243169F74FBF8091E800877F12
:104FA0008093E8006AE270E0CE01019654DC8091C3
:104FB000E8008B778093E80056CF805DE8CF609162
:104FC000830370918403AE014F5F5F4F86DBBC01AA
:104FD000892B09F448CF9091E800977F9093E800DF
:104FE00089819A8196DCE3CF803809F03CCF8091AB
:104FF000E800877F8093E80080917A038093F10036
:1050000028CF811130CF90918103923008F02BCFBF
:105010008091E800877F8093E80090937A030CDD0D
:1050200080917A03811529F084E080937E035BDA16
:105030001ACF8091E30087FDF7CF81E0F6CF089586
:10504000CF9380917E03811591F08091E900C0910A
:10505000EC008F70C0FBCC27C7F9C82B1092E90079
:105060008091E80083FDB3DECF70C093E900CF915B
:10507000089505D0332312F48A1B9B0B87C0A29F8F
:10508000B001B39FC001A39F700D811D1124911D1C
:10509000B29F700D811D1124911D0895DB018F9326
:1050A0009F9379D0BF91AF91A29F800D911DA39F37
:1050B000900DB29F900D11240895992778E0880FE4
:1050C000991F961708F0961B881F7A95C9F7809547
:1050D000089587FB082E062687FD819567FD61955B
:1050E000ECDF0EF4919507FC81950895AA1BBB1B7C
:1050F00051E107C0AA1FBB1FA617B70710F0A61BD8
:10510000B70B881F991F5A95A9F780959095BC01F8
:10511000CD01089597FB072E16F4009406D077FD75
:1051200008D0E4DF07FC05D03EF4909581959F4FB1
:105130000895709561957F4F0895A1E21A2EAA1BDC
:10514000BB1BFD010DC0AA1FBB1FEE1FFF1FA21737
:10515000B307E407F50720F0A21BB30BE40BF50B34
:10516000661F771F881F991F1A9469F760957095BD
:10517000809590959B01AC01BD01CF010895EE0F84
:10518000FF1F0590F491E02D099479DFB7FF089592
:10519000821B930B089573DFA59F900DB49F900D14
:1051A000A49F800D911D112408952F923F924F923C
:1051B0005F926F927F928F929F92AF92BF92CF92A7
:1051C000DF92EF92FF920F931F93CF93DF93CDB7B0
:1051D000DEB7CA1BDB0B0FB6F894DEBF0FBECDBF28
:1051E00009942A88398848885F846E847D848C84F9
:1051F0009B84AA84B984C884DF80EE80FD800C8102
:105200001B81AA81B981CE0FD11D0FB6F894DEBFE4
:105210000FBECDBFED010895AAE0B0E0E1E1F9E2F3
:10522000D4CF89879A87FC016081718182819381C3
:1052300000977040604021F464E279ED8BE597E0DF
:105240002DE133EF41E050E094D029833A834B8342
:105250005C839B01AC01A7EAB1E49DDF6D837E8393
:105260008F839887ACEEB4EF29813A814B815C81C2
:105270009ED02D813E814F815885260F371F481FB4
:10528000591FC901DA01B7FF03C00197A109B0484E
:10529000E985FA8580839183A283B3839F772A96D9
:1052A000E2E0AFCFB9CF80E091E0B6CF80930001CC
:1052B0009093010110920201109203010895FC01E4
:1052C0004150504030F001900616D1F73197CF0190
:1052D0000895882799270895FB01DC0104C08D916A
:1052E0000190801921F441505040C8F7881B990B58
:1052F0000895F999FECF92BD81BDF89A992780B59E
:105300000895A6E1B0E044E050E025C0A8E1B0E097
:1053100042E050E020C0262FF999FECF92BD81BD1A
:10532000F89A019700B4021639F01FBA20BD0FB6E3
:10533000F894FA9AF99A0FBE08950396272FECDF96
:10534000EADF252FE9DF242FE7CF0196272FE4DFBF
:10535000E2CFDC01CB01FC01F999FECF06C0F2BD22
:10536000E1BDF89A319600B40D9241505040B8F723
:105370000895052E97FB16F400940FD057FD05D025
:10538000DCDE07FC02D046F408C05095409530950D
:1053900021953F4F4F4F5F4F0895909580957095A1
:1053A00061957F4F8F4F9F4F0895B7FFF4CEF3DE87
:1053B000821B930B0895F894FFCFAF05AF05E60568
:1053C000E6053D065906D705D7055D06CF06DC067E
:1053D000DC06331236123A123E12421246124A12BA
:1053E0004E12521256125A12501BBF1B581B221B30
:1053F000261B5C1B2A1B601B6C1B361BB81B3A1B35
:10540000701B3E1B741B991B421B781BA01B481B67
:105410007E1B861B2E1B641B321B681B4C1B821BB6
:10542000901BA91BB61B1C1B541BC61B5F1C641CBA
:10543000661C6B1C7B1C7B1C7B1C7B1C7B1C7B1CD9
:105440007B1C7B1C6D1C711C741C791C881C8E1CA5
:10545000921C9E1EA41E8F1E981EAA1EB01EB61E53
:1054600007272D2733272D2733278027A2273327E8
:04547000F4270128F4
:10547400010000008002A002010102000C000C0CDB
:1054840001191A1B1C1D1E1F202122280850011E51
:105494000A140100000100C8203D22382233222EC4
:1054A40022E200E900EA00B500B600B700CD0083AF
:1054B40001CC008A019201940121022302240225D5
:1054C40002260227022A02B300B4006F0070009F74
:1054D40001CB019F02A002E200E900EA00B500B698
:1054E40000B700CD008301CC008A01920194012110
:1054F40002230224022502260227022A02B300B450
:10550400006F0070009F01CB019F02A002F0F1C662
:1055140067663694313735349796339091929395E4
:105524000001020202020606060909090909090F17
:105534000F0F0F0F0F151515181919191919191916
:105544001919192324252525252525691A6B1A7669
:045554001A8E1A0091
:00000001FF
